:020000040800F2
:1000000068090020A1010008751A0008ED13000816
:10001000711A0008251200082F23000800000000B4
:10002000000000000000000000000000111F000898
:1000300029120008000000001B1E000825200008EF
:10004000BB010008BB010008BB010008BB010008A0
:10005000BB010008BB010008BB010008BB01000890
:10006000BB010008BB010008BB010008BB01000880
:10007000BB010008BB010008BB010008BB01000870
:10008000BB010008BB010008BB010008BB01000860
:10009000BB010008BB010008BB010008BB01000850
:1000A000BB010008BB010008BB010008BB01000840
:1000B000BB010008BB010008BB010008BB01000830
:1000C000BB010008BB010008BB010008BB01000820
:1000D000BB01000801210008BB010008BB010008AA
:1000E000BB010008BB010008BB01000800F002F8DA
:1000F00000F047F80AA090E8000C82448344AAF17B
:100100000107DA4501D100F03CF8AFF2090EBAE878
:100110000F0013F0010F18BFFB1A43F0010318473B
:100120001837000038370000103A24BF78C878C16B
:10013000FAD8520724BF30C830C144BF04680C60ED
:10014000704700000023002400250026103A28BF35
:1001500078C1FBD8520728BF30C148BF0B60704739
:10016000662902F0B487002070471FB500F020FB1D
:1001700004000020002102F031FCE0601FBD10B53A
:1001800010BD00F019FC1146FFF7EFFF02F0C8FAAE
:1001900000F037FC03B4FFF7F2FF03BC02F0FEF8F7
:1001A0000948804709480047FEE7FEE7FEE7FEE70B
:1001B000FEE7FEE7FEE7FEE7FEE7FEE70448054947
:1001C000054A064B7047000029200008ED00000892
:1001D00068010020680900206805002068050020EB
:1001E000704700000FB41CB50C0007AA009001D0A6
:1001F0002044401E074B7B4469460190069800F05E
:10020000B6FA002C03D06946002000F0C3FA1CBCEB
:100210005DF814FBA50500002DE9F0474FF0000A3A
:1002200089460446C0F820A02046E1688847002897
:1002300076D0252806D0D4E901219047206A401CB9
:100240002062F1E7E168204600258847C4F81CA039
:1002500006460027C4F818A02A2E09D0304602F01E
:1002600096F838B304EB8708303EC8F8186019E0F8
:1002700059F8041B204604EB87029161E168884726
:10028000012F064618D1E069002820DA25F0200564
:100290001DE0D8F8180000EB800006EB4000303875
:1002A000C8F818002046E1688847064602F06FF853
:1002B0000028EED1012F0AD02E2E08D12046E16869
:1002C00088477F1C0646022F45F02005C4DBA06945
:1002D000002803DA404245F00105A061E80701D09B
:1002E00025F01005B6B1A6F14100192802D8203634
:1002F00045F400654A463146204625604D46FFF7E5
:100300002FFF58B1012806D0ED1D25F0070000F1A0
:10031000080989E704E005F1040985E730468AE722
:10032000206ABDE8F087704770477047704710B586
:1003300000F042FA006810BD10B5044600F03CFA27
:10034000046010BD70472DE9FF4F0C461E464FF06C
:10035000FF378BB0D2E90001DDF860800A908A4651
:10036000C1F30A5505B93D46002108464FF000008B
:10037000BAF1000F00F4400005DA00EB80004FF402
:10038000400101EA50004FEA9059B9F1010F00DD38
:10039000B9460A9850EA4A000ED044F61050A5F229
:1003A000FF3545432F14B8F1000F1ED07542291EAA
:1003B0001EDDC9F100021CE0B8F1010F4FF0000092
:1003C00001D0302103E0F24305E02154401CB0424B
:1003D000FBDB30460022002121540B99C1F8088034
:1003E000C1E900200FB0BDE8F08FBD1B6D1CDEE73A
:1003F0004A4600DA694206A800F068FA06AB93E8BC
:10040000070003AB83E8070050460A9900F042FB5F
:100410008DE80700A0F500501F3800900398002DCC
:100420000ADD42F21F014A460844002303A9039053
:10043000684600F0ABFD09E0A0F500504A461F38C1
:10044000002303A90390684600F0B5FD8DE807007E
:100450000004000C03D04FF0FF30410800E01046CC
:10046000B8F1000F03D00022009215461EE0751E61
:1004700005D400F0A5F9303262556D1EF9D5B346AA
:100480000122084302D000227F1C04E0207830289B
:1004900001D100227F1E002A099784D01DE0112D72
:1004A00007DA00F08DF9303262556D1C50EA010216
:1004B000F5D1084302D00098C8B10EE00021681EB3
:1004C00005E0235C625C63542254401E491C814257
:1004D000F7DBAB46A81B401E0990002004F80B0078
:1004E0000B98099AC0F80880C0E9002B7AE711261A
:1004F0004FF0000857E72DE9F04F88460446D21D1B
:1005000022F0070191B0D1E90001CDE90A0101F023
:1005100010FF02460B98C00F01D02D2007E0206885
:10052000810701D52B2002E0202101EAC000032A27
:10053000099001D0072A05DB03464146204600F01A
:1005400085F90BE12078800601D5E06900E00620FE
:10055000B8F1650F814606D0B8F1660F18D0B8F132
:10056000670F70D131E00020B9F1110F009001DB6D
:10057000112301E009F101030AAA01A90CA8FFF760
:10058000E2FEDDE90C70002609F10105834647E033
:1005900001204B4600904FF000470AAA01A90CA881
:1005A000FFF7D1FEDDE90DB00C995D46002610B9CC
:1005B00009F101000D18B9EB050003D4C0F1FF36B5
:1005C00009F10105A5EB09002BE0B9F1010F01DAF2
:1005D0004FF001090020B9F1110F0090484601DDEC
:1005E000112300E003460AAA01A90CA8FFF7ABFEFD
:1005F000DDE90C704D4600268346207800070AD4BA
:10060000AB4500DA5D4601A8012D04DD411911F862
:10061000011C302907D04F4502DA17F1040F04DA24
:10062000012082460FE06D1EEEE7002F02DCED1B7D
:100630003E4403E0781CA84200DD7D1CB81B00F19D
:10064000010A4FF000472078000703D4AA4501DBD8
:100650004FF0FF3A0021B7F1004F0DF143088DF83C
:10066000431024D002202B23002F01DA7F422D23B8
:100670000A21021EA0F1010000DC5FB197FBF1FC32
:1006800097FBF1F201FB1C7C17460CF1300C08F8CB
:1006900001CDEEE7A8F1010003702188090501D51D
:1006A000452100E06521A0F1010800F8011C09982E
:1006B0000FA9A1EB0807FF1D00B10120411901EBB3
:1006C000EA70A1693844081A401EA0612078C0066B
:1006D00002D42046AFF30080099828B1D4E9012163
:1006E0009047206A401C20622078C00622D5204610
:1006F000AFF300801EE0002E04DBB34502DD01A84D
:10070000805D00E03020D4E901219047206A401C40
:100710002062761CAAF101005FEA000A0AD100F00B
:1007200047F8C0680168405CD4E901219047206A1D
:10073000401C2062281EA5F10105DCDC07E0D4E99D
:10074000012118F8010B9047206A401C2062381ED6
:10075000A7F10107F3DC2046AFF30080032011B0BE
:1007600041E6000001694A1C02610878704700B543
:100770008FB0CDE901310021059105497944CDE9DA
:10078000031011466846FFF747FD0FB000BD00009B
:10079000E5FFFFFF0A6802F8010B0A607047D1E924
:1007A00000239A4202D2531C0B6010707047000065
:1007B00000487047280100200048704708010020C9
:1007C00030B5B0F10A024FEA900E71F100034EEA23
:1007D000817EB0EB0E0061EB91014FEA101E4EEAF4
:1007E000017E10EB0E0041EB11114FEA102E4EEA84
:1007F000016E10EB0E0041EB11214FEA104E4EEA54
:10080000014E10EB0E0041EB1141401841F1000187
:100810004FEAD00040EA41704FEAD10110EB800569
:100820004FEA810444EA907444EB01046D1944EBEF
:100830000404521BA3414FF0000348BF0A3200D505
:1008400030BD401C41F1000130BD00002DE9F041F8
:100850001F46044603260168072A01F4006004DBF2
:1008600008B116A505E016A503E008B115A500E03E
:1008700015A521F010002060A069C01EA0610FB175
:10088000401EA0612046AFF300804FB1D4E90121A2
:1008900038469047206A401C2062C01C206206E057
:1008A000206AFAE7D4E9012115F8010B9047761E7A
:1008B000F8D22046AFF30080BDE8F0814E414E00F3
:1008C0006E616E00494E4600696E66002DE9F04784
:1008D000814616468AB0354878440DC88DE80D002B
:1008E00032487844801C03AC0DC884E80D0041F602
:1008F0009B300844372190FBF1F290FBF1F5A5F114
:10090000800501FB12041B3C02D56442012000E07B
:100910000020DFF898A080460027FA44AAF1BE0A1A
:100920000EE0E0070AD03246684607EB4701012394
:100930000AEB810100F03FFB8DE8070064107F1C8B
:10094000002CEED1194F7F44AE3F19E0E80715D0D7
:1009500007EB04100DF1180A90E80E008AE80E006B
:10096000C068F04201D1981908903246012306A9C7
:1009700003A800F020FB03AB83E807006D10641CA4
:10098000002DE3D14FF0010332466946B8F1000F64
:1009900003A802D000F0FAFA01E000F00CFBC9E96C
:1009A0000001C9F808200AB0BDE8F087442F000014
:1009B00000487047080100207546FFF7F9FFAE4672
:1009C00005006946534620F00700854618B020B55B
:1009D000FFF7F4FBBDE820404FF000064FF00007A2
:1009E0004FF000084FF0000B21F00701AC46ACE8D7
:1009F000C009ACE8C009ACE8C009ACE8C0098D4644
:100A0000704710B50446AFF300802046BDE81040A3
:100A1000FFF7C0BB4FF0013C50F8042B51F8043BEA
:100A20009A4221D1A2EB0C03934313EACC1317D1C2
:100A300050F8042B51F8043B9A4215D1A2EB0C0359
:100A4000934313EACC130BD150F8042B51F8043B19
:100A50009A4209D1A2EB0C03934313EACC13DBD0E7
:100A60004FF00000704700BFD01A01BAB1FA81F10F
:100A700001F0180122FA01F0CB40C1F12001DBB2F4
:100A8000C0B2C01A2CFA01F3D11A914311EAC31172
:100A9000E6D170475FEA400C08BF91F0000F4FEAC3
:100AA0008C234FEAC12243EA51514FEA1C5018BF30
:100AB00000F5F0404FEA300018BF41F000415FEA16
:100AC0006C5C00F02980BCF1FF3F08BF40F0804023
:100AD0007047130C06BF12044FF0100C4FF0000CBF
:100AE000130E04BF12020CF1080C130F04BF120105
:100AF0000CF1040C930F04BF92000CF1020CD30F05
:100B000004BF52000CF1010C11464FF00002A0F19D
:100B10001F00A0EB0C00704711F0004F08BF70479A
:100B200031F000413FF4D5AF0B0C06BF09044FF084
:100B3000100C4FF0000C0B0E04BF09020CF1080C56
:100B40000B0F04BF09010CF1040C8B0F04BF8900CB
:100B50000CF1020CCB0F04BF49000CF1010CCCF1DD
:100B60002003A0EB0C0022FA03F302FA0CF241EA94
:100B7000030100F10100704720F07F4C80EA030080
:100B800023F07F47ACEB070303F57C5300F00040F4
:100B900003F1FF032DE980494FEA154B09B44FEAF1
:100BA000144325EA0B4E24EA03480FF2042606EB11
:100BB000132749083E785FEA320203FB0667C7F550
:100BC000000707FB06F64FEA54374FEAD64606F110
:100BD000020607FB066CCCF1005C4FEA1C472CEACE
:100BE000074C07FB06F40CFB06F504EB15464FEA31
:100BF000961634BF00204FF000404FEAD13706FB75
:100C000007FC4FEA1C4C0CFB0BF7D21B03FB0CF749
:100C100061EB07010CFB0EF7B0EB074072EB1742DC
:100C20000CFB08F734BFA2EB0742B2EB074261EBC3
:100C300017414FEA0C444FEA910706FB07FC4FEAC5
:100C40001C4C0CFB0BF7B0EBC74072EB573203FBAD
:100C50000CF734BFA2EBC742B2EBC74261EB57318E
:100C60000CFB0EF7B0EBC70072EB57720CFB08F7EA
:100C700034BFA2EBC702B2EBC70261EB5771039F0F
:100C80004FEA816141EA921104EBCC044FEAD1377B
:100C90004FEA826206FB07FC42EA90124FEA80604C
:100CA0004FEA1C4C0CFB0BF7D21B03FB0CF761EB60
:100CB00007010CFB0EF7B0EB074072EB17420CFB81
:100CC00008F734BFA2EB0742B2EB074261EB1741D2
:100CD0004FEA8C554FEA910704EB9C2406FB07FC76
:100CE0004FEA1C4C0CFB0BF7B0EBC74072EB5732D2
:100CF00003FB0CF734BFA2EBC742B2EBC74261EB78
:100D000057310CFB0EF7B0EBC70072EB57720CFBC0
:100D100008F734BFA2EBC702B2EBC70261EB577111
:100D200015EB4C254FEA816141EA92114FEA82624C
:100D30004FEAD13742EA901206FB07FC44F1000467
:100D40004FEA80604FEA1C4C0CFB0BF7D21B03FBF5
:100D50000CF761EB07010CFB0EF7B0EB074072EBF1
:100D600017420CFB08F734BFA2EB0742B2EB074275
:100D700061EB174115EB1C154FEA813141EA9241B5
:100D80004FEA823242EA90424FEA80304FEA0C76D4
:100D900044F1000448EA03434EEA0B484FF0000ECA
:100DA000B2EB080C71EB030724BF624639464EEBE9
:100DB0000E0E4FF0000B0018524149414BEB0B0B4C
:100DC000B2EB080C71EB03077BF1000B24BF62460A
:100DD00039464EEB0E0E4FF0000B001852414941C0
:100DE0004BEB0B0BB2EB080C71EB03077BF1000B29
:100DF00024BF624639464EEB0E0E51EA020718BF79
:100E000046F0010616EB0E7655F1000254F1000192
:100E100003D5BDE88901BDE80088BDE88901BDE8CA
:100E20000048B619524141EB0101A3F1010370479B
:100E300080807F7E7D7C7B7A797877767675747317
:100E4000727171706F6E6E6D6C6C6B6A6A696868D6
:100E5000676666656464636362616160605F5F5E6C
:100E60005E5D5D5C5C5B5B5A5A59595858575756E2
:100E70005655555554545353525252515150505047
:100E80004F4F4F4E4E4D4D4D4C4C4C4B4B4B4A4A99
:100E90004A494949484848474747474646464545DD
:100EA0004544444444434343434242424241414116
:100EB000002B9C4630D477002BD01CB54FEA370767
:100EC00003B44FF010004FF01001BAF1000F06D03C
:100ED000BCF1000FDCBF40F0080040F008014FF00B
:100EE00000000FBCBDE810400BF1010BBBF1010F7E
:100EF00008BF5FEA170722BF12F1010211F10101D9
:100F00004FF0004143F1000300F0004043EA0000CD
:100F10007047F9D35708D0E746EA064613F1400F69
:100F20004FEA16461FDD13F1200FDFBF16430A46B6
:100F3000002120335B42BED0C3F1200746EA0646BB
:100F400002FA07F74FEA164646EA0706C3F12007FA
:100F500022FA03F201FA07F721FA03F14FF0000336
:100F600042EA0702A7E746EA020646EA06464FEAD1
:100F7000164646EA0106BCBF46EA0646360C4FF066
:100F800000034FF000024FF0000194E72DE9804C80
:100F90009A46934670B491E8380007C831EA400C8D
:100FA00048BF34EA430C03D5FFF7E6FDFFF780FFA7
:100FB000F0BCBDE8008C2DE9804C9A46934670B495
:100FC00091E8380007C810F0804F08BF13F0804F39
:100FD00003D100F005F8FFF76BFFF0BCBDE8008C13
:100FE00020F07F4780EA030023F07F4C07EB0C03DF
:100FF000A3F57C5300F00040A3F1FE0392F0000F34
:1010000000F0B38095F0000F00F077802DE90149E2
:101010004FEA11404FEA144621EA004800FB06FC63
:1010200024EA064708FB06F607FB08F800FB07F76B
:1010300018EB06484CEB164C4FEA124B18EB0748DE
:101040004FEA15464CEB174022EA0B4E0BFB06FC11
:1010500025EA06470EFB06F607FB0EFE0BFB07F71D
:101060001EEB064E4CEB164C4FF000061EEB074EE7
:101070004CEB174B18EB0B0840F1000018EB0E0B74
:1010800058EB000840F100008F1A4FF000013CBF00
:10109000C943661B14BFB5EB040C00213CBFC94318
:1010A000F61B4FEA17444EEA8E0E27EA04454FEA34
:1010B0001C4704FB07622CEA074C05FB07F70CFBF7
:1010C00005F604FB0CFC16EB074642EB174216EB49
:1010D0000C4642EB1C421BEB060658EB0202414158
:1010E00046EA9E0601D5BDE80189B619524141EB99
:1010F0000101A3F10103BDE801894FEA14454FEA5C
:10110000114724EA054621EA074C05FB07F406FBD4
:1011100007F70CFB06F105FB0CFC11EB074144EB58
:1011200017444FEA124711EB0C4144EB1C4422EAEE
:10113000074C05FB07F206FB07F70CFB06F605FB61
:101140000CFC16EB074642EB174216EB0C4642EB43
:101150001C456A1854F1000148BF7047B619524146
:1011600041EB0101A3F10103704795F0000F37D067
:101170004FEA11424FEA144721EA024624EA074C9B
:1011800002FB07F106FB07F70CFB06F402FB0CFC65
:1011900014EB074441EB17414FEA154714EB0C449D
:1011A00041EB1C4125EA074C02FB07F506FB07F75C
:1011B0000CFB06F602FB0CFC16EB074645EB17454D
:1011C00016EB0C4645EB1C42121951F1000148BFC9
:1011D0007047B619524141EB0101A3F10103704779
:1011E0004FEA14454FEA114724EA054621EA074C25
:1011F00005FB07F106FB07F70CFB06F24FF00006B4
:1012000005FB0CFC12EB074241EB174112EB0C42C1
:1012100051EB1C4148BF7047921841EB0101A3F10B
:101220000103704700BFFEE770472DE9F041024619
:1012300000250026002000230024002791F803C089
:101240000CF00F0591F803C00CF0100CBCF1000F6E
:1012500003D091F802C04CEA050591F800C0BCF13A
:10126000000F31D0146800202BE04FF0010C0CFA75
:1012700000F3B1F800C00CEA03069E4220D18300BF
:101280004FF00F0C0CFA03F7BC4305FA03FC4CEAD1
:10129000040491F803C0BCF1280F06D14FF0010CF3
:1012A0000CFA00FCC2F814C00AE091F803C0BCF1CB
:1012B000480F05D14FF0010C0CFA00FCC2F810C029
:1012C000401C0828D1D31460B1F800C0BCF1FF0F56
:1012D00034DD546800202EE000F1080C4FF00108C6
:1012E00008FA0CF3B1F800C00CEA03069E4221D1C3
:1012F00083004FF00F0C0CFA03F7BC4305FA03FC14
:101300004CEA040491F803C0BCF1280F05D100F1A8
:10131000080C08FA0CF8C2F8148091F803C0BCF16C
:10132000480F07D100F1080C4FF0010808FA0CF83B
:10133000C2F81080401C0828CED35460BDE8F0816C
:10134000F0B50A46002300240021002500F00046E5
:10135000B6F1004F02D11D4EF16901E01B4E7168DC
:10136000C0F3034583B200F44016B6F5401F08D120
:1013700021F07061154E766826F07066134F7E601E
:1013800012E000F48016B6F5801F06D1032606FA97
:1013900005F4A14341F0706106E0460D360103FA01
:1013A00006F6B14341F0706122B1460D360103FAF1
:1013B00006F6314300F00046B6F1004F02D1034E6D
:1013C000F16101E0014E7160F0BD000000000140DC
:1013D0000246002093680B400BB1012000E0002082
:1013E00070470AB1016100E04161704700BFFEE74C
:1013F00010B5002210210C48FFF7F3FF002208214E
:101400000948FFF7EEFF022001F064F901221021E4
:101410000548FFF7E6FF022001F05CF900221021E9
:101420000148FFF7DEFF10BD000C014008B50121A7
:10143000082000F0F3FC1820ADF8000003208DF820
:10144000020014208DF8030069460748FFF7EDFEFF
:10145000012210210448FFF7C4FF0122082102489D
:10146000FFF7BFFF08BD0000000C014010B50022CF
:1014700010210C48FFF7B5FF012208210948FFF7AA
:10148000B0FF022001F026F9012210210548FFF7E4
:10149000A8FF022001F01EF9002210210148FFF7E9
:1014A000A0FF10BD000C014070B5054600240122CC
:1014B00008211548FFF795FF00261AE000221021A9
:1014C0001148FFF78EFF022001F004F901221021DC
:1014D0000D48FFF786FF6006040E08210A48FFF753
:1014E00077FF08B144F00104012001F0F3F8701C0B
:1014F000C6B2082EE2DB15B1FFF77AFF01E0FFF775
:10150000B5FF204670BD0000000C014070B50446D8
:1015100000251BE0E20908210E48FFF762FF600684
:10152000040E022001F0D6F8012210210948FFF72D
:1015300058FF022001F0CEF8002210210548FFF7E5
:1015400050FF022001F0C6F8681CC5B2082DE1DB8F
:1015500070BD0000000C014010B5012208210C48AC
:10156000FFF73FFF012210210948FFF73AFF04204F
:1015700001F0B0F8002208210548FFF732FF0420EF
:1015800001F0A8F8002210210148FFF72AFF10BD42
:10159000000C014010B5002210210C48FFF721FF7C
:1015A000002208210948FFF71CFF042001F092F8EF
:1015B000012210210548FFF714FF012208210348EA
:1015C000FFF70FFF042001F085F810BD000C01406B
:1015D00010B50024012208211248FFF702FF012064
:1015E00001F078F8012210210E48FFF7FAFE0120E1
:1015F00001F070F808E0601C80B20446FA2803DDB0
:10160000FFF7C8FF012010BD08210648FFF7E0FEE4
:101610000028F0D1002210210248FFF7E2FE00204E
:10162000F1E70000000C01402DE9F04F87B00446BF
:101630000E4617461D463846216901F0D3FC60610D
:101640002846616901F070FB8246E16801F00EFAFC
:10165000E0602846616A01F067FB0090E16901F0F3
:10166000C1FC0190216A01F0BDFC8346216801F0B4
:10167000FDF92946029001F057FB8246A16901F06D
:10168000F5F9A0612846616A01F04EFB8246E169E6
:1016900001F016FCE0612846616A01F045FB8246D4
:1016A000216A01F00DFC20622946606801F03CFBD4
:1016B0008246616A01F0DAF96062A168A06901F00E
:1016C000D5F90690A069069901F038FA0590206ACC
:1016D000069901F033FA04903046E16801F082FC8B
:1016E00003900399059801F01FFB8246E16801F021
:1016F000BDF9E060DDE9031001F016FB82462169C7
:1017000001F0B4F92061D4F81880D4F81C90414657
:10171000059801F009FB8246414601F0D1FBA0612A
:101720004946059801F000FB8246494601F0C8FB96
:10173000E0614146049801F0F7FA8246216A01F01F
:10174000BFFB20624946049801F0EEFA8246616AC6
:1017500001F0B6FB6062E06807B0BDE8F08F000002
:1017600007490160074941600749816000214161E3
:101770000161C160002242620262C26182617047FF
:101780006F12833AA69B443B8FC2F53C2DE9FC4186
:1017900004460D4616466B4606223B21682000F0A3
:1017A000C2F80746BFB99DF801009DF8001040EA55
:1017B000012000B220809DF803009DF8021040EA4D
:1017C000012000B228809DF805009DF8041040EA31
:1017D000012000B230803846BDE8FC812DE9FC4193
:1017E00004460D4616466B4606224321682000F04B
:1017F0009AF80746BFB99DF801009DF8001040EA2D
:10180000012000B220809DF803009DF8021040EAFC
:10181000012000B228809DF805009DF8041040EAE0
:10182000012000B230803846BDE8FC8138B5012186
:10183000084600F0F3FA0121042000F0EFFA01213C
:101840002748FFF77DFD4FF40040ADF80000102061
:101850008DF8030003208DF8020069462148FFF748
:10186000E4FC002020490860FFF7E0FD80216B20A8
:1018700000F0DCF8642000F007FF00216B2000F08E
:10188000D5F8032000F091F8002000F086F832200F
:1018900000F0B0F80021382000F0C8F800216A20DC
:1018A00000F0C4F80021232000F0C0F88021372088
:1018B00000F0BCF8752000F019F80446682C01D03F
:1018C000012038BD01216B2000F0B0F800216C2010
:1018D00000F0ACF8322000F08DF80020F1E70000B5
:1018E0000002300000080140BC01214270B50446EE
:1018F000FFF732FED020FFF709FEFFF769FE204612
:10190000FFF704FEFFF764FEFFF726FED120FFF786
:10191000FDFDFFF75DFE0020FFF7C6FD0546FFF762
:1019200039FE284670BD2DE9F04106460F461446A3
:101930001D46FFF711FE002141EA4601C8B2FFF73C
:10194000E5FDFFF745FE20B1FFF724FE0120BDE8CD
:10195000F0813846FFF7DAFDFFF73AFEFFF7FCFDAE
:10196000012101EB4601C8B2FFF7D0FDFFF730FEC1
:101970000DE0012C04D10020FFF796FD287003E054
:101980000120FFF791FD28706D1C601EC4B2002C71
:10199000EFD1FFF7FFFD0020D9E710B50446E006C0
:1019A000010E1C2000F042F810BD10B50446E00600
:1019B000010E1B2000F03AF810BD70B5044600255A
:1019C000BC2C01DB012510E0622C01DB02250CE0C0
:1019D0002A2C01DB032508E0142C01DB042504E09C
:1019E0000A2C01DB052500E0062529461A2000F017
:1019F0001DF870BD70B50446B4F57A7F01DD4FF473
:101A00007A74042C00DA04244FF47A7090FBF4F01A
:101A1000401EC5B22946192000F008F8264604EBFE
:101A2000D671C1F34F00FFF7C8FF70BD70B5054612
:101A30000C46FFF791FDD020FFF768FDFFF7C8FDCA
:101A400018B1FFF7A7FD012070BD2846FFF75EFD26
:101A5000FFF7BEFD2046FFF759FDFFF7B9FD18B1AE
:101A6000FFF798FD0120EFE7FFF794FD0020EBE77B
:101A700000BFFEE7704770B500240EE0002120464D
:101A800000F0EFF8002504E0002000F0B6F9681C33
:101A9000C5B2802DF8DB601CC4B2082CEEDB70BD33
:101AA00008B50121082000F0B9F914208DF80300D1
:101AB00003208DF802004FF48070ADF800006946F5
:101AC0000A48FFF7B2FB4FF40070ADF8000069461A
:101AD0000648FFF7AAFB012211020448FFF781FC28
:101AE000012251020148FFF77CFC08BD000C0140B7
:101AF00070B50546002415E08020204100EA05026B
:101B00004FF400710E48FFF76CFC012211020C48E3
:101B1000FFF767FC00224FF480710948FFF761FC72
:101B2000601CC4B2082CE7DB012211020448FFF755
:101B300058FC00224FF480710148FFF752FC70BD41
:101B4000000C014010B5012251020A48FFF749FC80
:101B5000012211020748FFF744FC00224FF40071F4
:101B60000448FFF73EFC00224FF480710148FFF764
:101B700038FC10BD000C014010B500224FF400717C
:101B80000648FFF72EFC012211020448FFF729FC4A
:101B9000012251020148FFF724FC10BD000C014056
:101BA00070B5002406E0002500E06D1CB5F57A7FD5
:101BB000FBD3641CB4F57A7FF5D3FFF771FFAE2039
:101BC00000F00BF9D52000F008F9802000F005F9AD
:101BD000A82000F002F93F2000F0FFF8D32000F029
:101BE000FCF8002000F0F9F8402000F0F6F8A12001
:101BF00000F0F3F8C82000F0F0F8DA2000F0EDF87B
:101C0000122000F0EAF8812000F0E7F8CF2000F081
:101C1000E4F8D92000F0E1F8F12000F0DEF8DB2054
:101C200000F0DBF8302000F0D8F8A42000F0D5F860
:101C3000A62000F0D2F88D2000F0CFF8142000F09C
:101C4000CCF8AF2000F0C9F8FFF715FF70BD10B554
:101C50000246012000E050430B1EA1F10101FAD120
:101C600010BD70B505460C4645F0B00000F0B5F863
:101C7000102141EA141000F0B0F804F00F0000F059
:101C8000ACF870BD2DE9F04105460E461746721EB0
:101C9000D206110E6A1E5206100EFFF7E2FF002454
:101CA00009E0A7F12001134A02EB0111085D00F0E1
:101CB000A4F8601CC4B2082CF3DB721ED206110E0D
:101CC0006A1E012303EB4202D0B2FFF7CAFF0024D1
:101CD0000BE0A7F12001074A02EB011204F1080111
:101CE000505C00F08AF8601CC4B2082CF1DBBDE83F
:101CF000F0810000B23100082DE9F04781460E4620
:101D000090461F4600241DE0381B411E1020FFF79F
:101D10009EFFB8FBF0F000F00F050A2D08DA05F180
:101D20003000C2B23019C1B24846FFF7ABFF07E03E
:101D300005F13700C2B23019C1B24846FFF7A2FF21
:101D4000601CC4B2BC42DFDBBDE8F0872DE9F04780
:101D50008146884615461E46002D06DB2B2241464D
:101D60004846FFF78FFF2F4605E02D2241464846A3
:101D7000FFF788FF6F42002417E0301B411E0A2046
:101D8000FFF765FFB7FBF0F00A21B0FBF1F201FBB2
:101D9000120000F1300A08EB0400401CC1B25246A8
:101DA0004846FFF76FFF601CC4B2B442E5DBBDE8F4
:101DB000F0872DE9F04107460E461546002407E05E
:101DC0002A5D3019C1B23846FFF75CFF601CC4B20F
:101DD000285D0028F4D1BDE8F08110B50446FFF776
:101DE000B1FE7820FFF784FE0020FFF781FE204639
:101DF000FFF77EFEFFF7C0FE10BD10B50446FFF7EB
:101E0000A1FE7820FFF774FE4020FFF771FE204608
:101E1000FFF76EFEFFF7B0FE10BD704729B1064A0E
:101E200092690243044B9A6104E0034A9269824337
:101E3000014B9A61704700000010024030B500214C
:101E40000022002400232D4D6D6805F00C0121B106
:101E5000042905D0082923D105E0294D056022E099
:101E6000274D05601FE0254D6D6805F47012234D68
:101E70006D6805F48034022505EB92421CB9214DB2
:101E8000554305600BE01D4D6D6805F400351DB12F
:101E90001C4D5543056002E0194D5543056002E0B5
:101EA000174D056000BF00BF144D6D6805F0F001CF
:101EB0000909154D6B5C0568DD4045600F4D6D6887
:101EC00005F4E061090A104D6B5C4568DD408560F2
:101ED0000A4D6D6805F46051C90A0B4D6B5C45688D
:101EE000DD40C560054D6D6805F44041890B074D27
:101EF0006B5CC568B5FBF3F5056130BD00100240B1
:101F000000127A0000093D002A0000203A0000205B
:101F1000704710B500F002F810BD00000CB50020AD
:101F2000019000903348006840F4803031490860E7
:101F300000BF3048006800F4003000900198401C59
:101F40000190009818B90198B0F5A06FF1D1294817
:101F5000006800F4003010B10120009001E0002082
:101F600000900098012843D12348006840F01000F9
:101F7000214908600846006820F003000860084610
:101F8000006840F0020008601A484068194948603B
:101F90000846406848600846406840F480604860F1
:101FA0000846406820F47C1048600846406840F4C9
:101FB000E81048600846006840F08070086000BF84
:101FC0000C48006800F000700028F9D0094840680B
:101FD00020F00300074948600846406840F00200CE
:101FE000486000BF0348406800F00C000828F9D1A1
:101FF0000CBD00000010024000200240042808D15F
:102000004FF0E021096941F004014FF0E022116135
:1020100007E04FF0E021096921F004014FF0E022D0
:10202000116170477047000010B51348006840F018
:1020300001001149086008464068104908400E49EF
:102040004860084600680E4908400B490860084689
:10205000006820F4802008600846406820F4FE00F4
:1020600048604FF41F008860FFF753FF4FF0006097
:102070000449086010BD0000001002400000FFF895
:10208000FFFFF6FE08ED00E010B586B00446012122
:1020900044F20400FFF7C2FE4FF40070ADF81400E4
:1020A00003208DF8160018208DF8170005A9124896
:1020B000FFF7BBF84FF48060ADF8140004208DF8F2
:1020C000170005A90C48FFF7B0F801940020ADF8FF
:1020D0000800ADF80A00ADF80C00ADF810000820BB
:1020E000ADF80E0001A9054800F0ACF80121034845
:1020F00000F065F806B010BD00080140003801404E
:1021000010B540F225511D4800F072F810B31B487D
:1021100000F004F9C4B21A48008800F40040C8B9BD
:102120001748008800F4804060B10A2C03D00020DA
:102130001349088020E01248008840F4004010490C
:10214000088019E00D2C06D10D48008840F480402D
:102150000B49088010E00A480088C0F30D000949C7
:102160000C5407480088401C054908800846008830
:10217000C72801DD0020088010BD000000380140A4
:10218000280000204000002010B5044600BF802138
:10219000044800F020F80028F9D02146014800F05A
:1021A000C2F810BD0038014010B5044603E014F831
:1021B000010BFFF7E9FF20780028F8D110BD21B10D
:1021C000828942F40052828104E082894DF6FF73D5
:1021D0001A408281704702460020B1F5007F00D18D
:1021E00000BF13880B400BB1012000E000207047B6
:1021F00070B50246002400230025002040F66A1630
:10220000B14200D100BFC1F3421501F01F03012606
:1022100006FA03F3012D02D19689334006E0022D20
:1022200002D1168A334001E0968A33400C1201260F
:1022300006FA04F41688344013B10CB1012000E012
:10224000002070BD2DE9F04786B005460E460024FB
:10225000A24600BFA1460027B08900B100BF2F46AB
:102260002C8A4CF6FF700440F08804432C82AC8921
:102270004EF6F3100440B088318908437189084351
:102280000443AC81AC8A4FF6FF400440B08904435C
:10229000AC8201A8FFF7D2FD1F48874202D1DDF8CA
:1022A00010A001E0DDF80CA0A88900F4004040B1C6
:1022B0000AEBCA0000EB0A1031684900B0FBF1F8E4
:1022C00007E00AEBCA0000EB0A1031688900B0FB96
:1022D000F1F86420B8FBF0F004012009642101FB4F
:1022E0001089A88900F4004040B1322000EBC900F9
:1022F000B0FBF1F000F00700044308E0322000EBEF
:1023000009106421B0FBF1F000F00F0004432C81B0
:1023100006B0BDE8F087000000380140014688881B
:10232000C0F308007047C1F308028280704700BF05
:10233000FEE7490050EAC12018BF04204A0D18BF2B
:1023400040F0010040F2FF72B2EB515F08BF40F075
:102350000200012808BF052070474100080218BF8D
:1023600004200A0E18BF40F001004FF07F4232EA0D
:10237000010108BF40F00200012808BF0520704796
:1023800000F074BB6FF05E01080700F0D4BE303877
:102390000A2801D2012070470020704700BF704713
:1023A0002DE9F0474FF0684202EB40030C4605462A
:1023B000B3F1654F3CBF02EB4102B2F1654F80F0D3
:1023C000CD8000BFC0F3C752C1F3C753D21A1B2A36
:1023D00006DD10F0004F14BF87488848BDE8F0873D
:1023E00012F11A0F2FDA11F0004F06D010F0004F43
:1023F0000CBF83488348BDE8F0872146284600F09B
:102400009DFB0646FFF7A9FF042808BFFFF7BAFFA8
:102410002846FFF7A2FF05462046FFF79EFF044629
:102420003046FFF79AFF042D18BF052D08D1042C64
:1024300018BF052C04D1002804BF0220FDF77CFF43
:102440003046BDE8F0874200B2EB410F25D910F0CD
:10245000004F19BF6C4F6D4E6D4F6E4E224685F08A
:10246000004415460A4680F0004110460A1A520000
:10247000B2F1807F3ED248406749DFF8A0A110F05A
:10248000004F18D04FF03F48384600F0ABFD0746EC
:102490005146304600F0A6FD17E011F0004F04BF92
:1024A00000263746E2D010F0004F19BF5C4F5D4E5A
:1024B0005D4F5E4EDAE74FF07C58384600F0D6FAB2
:1024C00007465146304600F0D1FA064641462846B6
:1024D00000F02AFC214600F0C9FA82462146404617
:1024E00000F022FC294600F0EBFC514600F026FBF0
:1024F000044604E02146284600F020FB044601463D
:1025000000F012FC80464A4900F00EFC494900F0F8
:10251000ADFA414600F008FC474900F0A7FA4146F1
:1025200000F002FC454900F0A1FA414600F0FCFB36
:10253000434900F09BFA05464146204600F0F4FB73
:10254000294600F0F1FB314600F090FA214600F0F8
:102550008DFA3946BDE8F04700F088BA4FF07F4267
:10256000B2EB400F28BFB2EB410F03D2BDE8F047FA
:10257000FFF706BF40EA01035B0008BF44F0FF41DC
:102580000AD0B2EB400F08BFB2EB410F06D125F0E5
:10259000804024F0804105460C4613E7B2EB400F23
:1025A00012BF5FEA410345F0FF4004F000413FF4F1
:1025B00009AFB2EB410F12BF5FEA400205F00040E5
:1025C00044F0FF413FF4FEAE4A0092EA40033FF57B
:1025D000F9AE002AACBF4FF09F464FF03E56314651
:1025E00000F0A2FB05463146204600F09DFB044664
:1025F00028462146E6E60000DB0FC9BFDB0FC93FD6
:10260000DB0F4940DB0F49C00000C9BF22AAFDB95A
:102610000000C93F22AAFD390060ED3EC30ACE3753
:10262000000049C022AA7DBA0000494022AA7D3A92
:102630002DAD65BD8FB8D53D0FB511BE61C84C3EFF
:10264000A8AAAABE10B56FF00400FFF7D7FC0A488D
:1026500000680A49B0FBF1F00949087008460078A3
:1026600000EB4001C1EBC0104FF6FF7101EAC00062
:102670000449088010BD00000C00002000127A0000
:1026800020000020220000200146114A12884A43FF
:102690004FF0E0235A6100229A611A46126942F013
:1026A00001021A6100BF4FF0E022106900F0010240
:1026B0001AB100F48032002AF5D04FF0E0221269FE
:1026C00022F001024FF0E0231A6100229A61704764
:1026D000220000200146114A12784A434FF0E023BD
:1026E0005A6100229A611A46126942F001021A6187
:1026F00000BF4FF0E022106900F001021AB100F4AF
:102700008032002AF5D04FF0E022126922F0010257
:102710004FF0E0231A6100229A61704720000020E8
:10272000BEB0FFF78FFFFEF781FEFFF739FAFFF724
:102730007DF840B1FFF79FF983A201210846FFF71A
:1027400038FB00BFFEE74FF4E130FFF79DFC75203A
:10275000FFF7CCF80546FFF78EF97FA20121084666
:10276000FFF727FB02232A460B210120FFF7C4FABB
:102770004FF47A70FFF788FF34A8FEF7F1FF2AA81C
:10278000FEF7EEFF20A8FEF7EBFF00BF0024DAE023
:10279000744A75497548FEF7F9FF754A75497648D8
:1027A000FFF71CF87148B0F9000000F0A5FA0546E3
:1027B0004FF08D4100F0C2F91F906B48B0F9000056
:1027C00000F09AFA05464FF08D4100F0B7F98146C6
:1027D0006448B0F9000000F08FFA05464FF08D41D3
:1027E00000F0ACF982466448B0F9000000F084FAC9
:1027F0000546624900F0A2F91E905E48B0F900005B
:1028000000F07AFA05465D4900F098F91D905848A5
:10281000B0F9000000F070FA0546584900F08EF952
:10282000834651464846FFF7BBFD0546544900F034
:102830007BFA1C905146504600F076FA49461790B4
:10284000484600F071FA1690179900F00FF980468B
:1028500000F0AEF806461F9880F000473146384633
:10286000FFF79EFD0546464900F05EFA1B90454B7A
:1028700034A81E9A1C99FEF7D7FE1A90414B2AA83D
:102880001D9A1B99FEF7D0FE19903E49584600F05C
:102890004BFA0546214600F0E9F81890394B5A46A4
:1028A00020A81899FEF7C0FE0446FFF7E4F836A208
:1028B00001210846FFF77DFA1A9800F001FA054653
:1028C00005232A4604210120FFF740FA2FA2012107
:1028D0000220FFF76EFA199800F0F2F90546052379
:1028E0002A4604210220FFF731FA29A20121032000
:1028F000FFF75FFA204600F0E3F9054605232A4674
:1029000004210320FFF722FA204600F083F8054651
:102910000E46199800F07EF8074688461A9800F08F
:1029200079F8CDE9056007911AA28DE88301049535
:10293000402108A8FDF756FC08A8FFF735FCC82081
:10294000FFF7A2FE00BF23E74D505520496E697482
:10295000204572720000000057484F5F414D5F49AB
:102960003D000000040000200200002000000020C4
:102970000A000020080000200600002033338341B5
:10298000E12E6542CDCC4C3E523A0000503A000058
:10299000593A000073616D706C65733A20252E31D1
:1029A000662C20252E31662C20252E31660A00004B
:1029B00070B5054600F08EFA044620F00040C0F1E4
:1029C000FF40C00F08D025F00040C0F1FF40C00F0D
:1029D00004BF0120FDF7B0FC204670BD10B50029F2
:1029E0000AD00878002807D005487844FEF712F886
:1029F000002801D0002010BD0248784410BD00001E
:102A00006E0E0000660E00000808A0F500114FEAE7
:102A10003101704743004FEAD30C4FEA3C0C43406E
:102A20001FBF40070CF1605113F0FE4F70471CF0C0
:102A3000006F03D100200CF0004170470CF0004300
:102A400043EA507010B540EACC0000F0EEF900BF48
:102A5000000000924FEA0001FFF7D6BF4FF000419F
:102A60004FF00000A1F500217047000090EA010F2F
:102A700048BF81F0004100F1BC82421A3CBF801A7D
:102A800089184FEAD0524FF07F4C1CEA410FA2EB5D
:102A9000D15318BF9CEA026F00F03B804FF0004C0E
:102AA0004CEA00204CEA012121FA03FC10EB0C0C4B
:102AB0001ED202F1FF325FEA1C2040EBC25038BF49
:102AC00070471CF07F0F4FEA400C18BFBCF17F4FDE
:102AD00038BF7047C3F12003994008BF20F00100C0
:102AE000BCF17F4F38BF7047A0F1C04000F0E3B9A0
:102AF0004FEA3C00000A40EBC25028BF1CF0FF0F19
:102B00004FEA400CE6D018BFBCF17F4F38BF70478A
:102B1000EAE79CEA026F05D010EA5C0F08BF00F0FC
:102B20000040704710B500F080F900BF64FBBE3E66
:102B3000014800F0CEBA00BF0000C07F4FF47F0C08
:102B40001CEAD0121EBF1CEAD11392EA0C0F93EAC2
:102B50000C0F00F0858090EA010F48BF42F48072AC
:102B600040F4000C41F400002CF07F4120F07F4045
:102B700000B58142A2EB03020FF2081CACEB504EF1
:102B8000C0F100009EF800E04FEA4E0E00FB0EFC84
:102B900038BF49004FEA2C1C02F5FA020CFB0EF379
:102BA0004FEACE1E4FEA112C4FEAC1210EEB635EB5
:102BB00042EB22420EFB0CFC4FEA1C5300FB0311BC
:102BC0004FEA112C4FEA01310EFB0CFC4FEADC4CB2
:102BD00000FB0C11C14228BF09184CEB03335DF810
:102BE00004EB10EB410143EBC250B2F57C0F38BF50
:102BF000704729D512F0F00F1CBF00F1C04000F063
:102C000000407047008182838485868788898B8C09
:102C10008D8E8F919293959697999A9C9D9FA0A245
:102C2000A3A5A7A8AAACAEB0B2B3B5B7B9BCBEC095
:102C3000C2C5C7C9CCCED1D4D7D9DCDFE2E6E9EC36
:102C4000F0F3F7FAFE0000004FEA400C0CF1807C34
:102C5000BCF17E4F28BF7047B0F1C04000F02BB9E7
:102C600090EA010F0CEAD11348BF42F4807262452A
:102C700038BF634507D213F47F0F16D080EA0100F6
:102C800000F00040704710B500F0CFF8097EFC3E20
:102C900000F005B880EA010000F00040704780EACB
:102CA000010000F0004000F006B912F47F0F04BFED
:102CB0000248704780EA010000F0FDB80000C07FC4
:102CC00041000B0ED3F19E0208D950F400034FEAE5
:102CD000032323FA02F048BF4042704710B500F0CA
:102CE000A4F800BF49922480002070476FF0004292
:102CF00082EA20007047000010F0004148BF4042C7
:102D0000B0FA80F310FA03F2C3F19D030BD051EA3D
:102D1000C35101EB1220530638BF704700F1010088
:102D200008BF20F0010070474FF47F0C1CEAD0125E
:102D30001EBF1CEAD11392EA0C0F93EA0C0F00F0AD
:102D4000478090EA010F48BF42F480724FF0004C78
:102D50004CEA00204CEA012102EB0302A0FB011324
:102D6000A2F50002002918BF43F001035B0028BF51
:102D70004FEA330342EB22425FEA132C4CEBC25082
:102D80002EBFBCEB436FB2F57C0F70474FEA036C6C
:102D9000BCF1004F08BF20F00100B2F57C0F38BF36
:102DA00070470BD582F0FF0212F5803FC8BF704715
:102DB00000F1C040D8BF00F00040704700F5000CA3
:102DC0005FEA4C0C48BF7047B0F1C04000F073B8E8
:102DD00090EA010F0CEAD11348BF42F480726245B9
:102DE00038BF634504D280EA010000F0004070471C
:102DF00010B500F01AF800BF8900013E00F007B8D6
:102E000000F009B85FEA410C5FEA1C6C08D080EA68
:102E1000010000F050B85FEA400C5FEA1C6CF6D18C
:102E20004FF00040A0F5800070470EF1020E2EF02A
:102E3000030E5EF8044B244204D44FEA4102B2F17F
:102E40007F4F11D84FEA4003B3F17F4F0CD80ED11A
:102E50004FEAD07CB2F17F4F0CEB4C0C0CF1020C22
:102E600008BF4CEBD17C04E04FF0080C01E04FEAC6
:102E7000D17C0CEB4C0324FA03F404F00704B4F106
:102E8000040C06D20EEB840CBDE810404CF0010C93
:102E90006047DFE80CF0070802024FF00040A0F5A1
:102EA000800010BD0846420018BFD2F1807288BF72
:102EB00000F0004010BDFF2141EAD050C00570472E
:102EC00080F0004090EA010F7FF5D7AD81F000411E
:102ED00000F08FB84FEAD051002988BFD1F1FF022E
:102EE00040F2758001F17D014FEA002070B549087C
:102EF00040F0004038BF40080EA2430E040CD25CE4
:102F000002FB02F304FB03F3C3F14043A3FB0254AF
:102F1000ED0D45EA442202FB02F3A0FB03546D428F
:102F2000C4F1404438BF641EA2FB05350023E2FB18
:102F30000453EA0B42EA4342A0FB023212F140047E
:102F4000A2F12103E40903F07F031F2B32D904EB24
:102F5000C15070BDFEFAF7F3F0ECE9E6E4E1DEDC27
:102F6000D9D7D4D2D0CECCCAC8C6C4C2C1BFBDBCCA
:102F7000BAB9B7B6B4B3B2B0AFAEACABAAA9A8A752
:102F8000A6A4A3A2A1A09F9E9E9D9C9B9A99989760
:102F9000979695949393929190908F8E8E8D8C8C22
:102FA0008B8A8A89898887878686858484838382B9
:102FB0008281818004FB04F6B6EB004603D5E6422D
:102FC00048BF641CC3E7A64258BF641CBFE711F0AA
:102FD000FF0F02D100F00040704710B5FFF725FF4A
:102FE0007FDBFFBE90EA010F48BF81F000413FF553
:102FF00044AD421A04D882F00042A0EB0200114412
:103000004FEAD0524FF07F4C1CEA410FA2EBD15354
:1030100018BF9CEA026F4AD04FF0004C4CEA0020E7
:103020004CEA012121FA03FCB0EB0C0C0FD412F096
:10303000FE0F36D05FEA4C001DD5001240EBC250A7
:1030400038BF70471CF03F0F18BF70470BE0A2F16C
:1030500001025FEA1C2040EBC25038BF70471CF0F1
:103060007F0F18BF7047C3F12003994014BF401E63
:1030700020F00100704780084FEA122308BF704714
:10308000B0FA80FCA2EB0C02CCF1280C60FA0CF038
:1030900093EA122F04BF00EBC25070474FEAC3708F
:1030A0007047130A5FEADC1008BF7047F6E79CEA36
:1030B000026F04D010EA5C0F08BF0020704710B503
:1030C000FFF7B3FE40DFF63E81F000407047FDF7AA
:1030D00012BA0CF00F03092B08BF082000F0518032
:1030E0000A2B0BD0082B18BF704708BF1CF0400FED
:1030F0000AD04FF000004FF0000170471CF0400F65
:1031000018BF4FF0004070471CF0100F08D020F09F
:10311000704300F07F4242EAD3014FEA43707047A8
:1031200000F0604021F07F4242EA000201F07F405F
:1031300040EA727070474FF0FF0212EAD0521CBF93
:1031400092F0FF038B42C2BFD14200EBC1507047E7
:10315000002A0AD0002B0BD0002900F00040A4BFA9
:1031600040F0FE4040F40000704700F0004070471F
:1031700043024FF00B0C18BF4CF0806C7FF4D8ACBE
:1031800070471CF4801F11D01CF4E02F03D06FEAAD
:10319000CC31490070474FF04050EFF3008222F0ED
:1031A000704242EA000282F3008870474FF000004C
:1031B0007047000000000000000000000000000058
:1031C0000000000000F800000000000000333000A4
:1031D000000000100C06100C0600000000000000AB
:1031E000000040C07840C0784000043F04043F0421
:1031F0000400007088FC08300000001820FF211E29
:103200000000F008F000E018000000211C031E215F
:103210001E0000F00888700000001E2123241927DA
:10322000211010160E000000000000000000000039
:103230000000000000E01804020000000007182051
:10324000400000020418E0000000004020180700C1
:103250000000404080F0804040000202010F010267
:103260000200000000F0000000000101011F010148
:103270000100000000000000000080B070000000AD
:103280000000000000000000000000010101010139
:1032900001010000000000000000003030000000CC
:1032A00000000000000080601804006018060100A3
:1032B000000000E010080810E000000F10202010AF
:1032C0000F00001010F8000000000020203F202018
:1032D00000000070080808887000003028242221AF
:1032E0003000003008888848300000182020201165
:1032F0000E000000C02010F8000000070424243F46
:10330000240000F8088888080800001921202011EE
:103310000E0000E0108888180000000F1120201116
:103320000E0000380808C83808000000003F000000
:1033300000000070880808887000001C22212122EB
:103340001C0000E010080810E000000031222211EB
:103350000F00000000C0C00000000000003030007E
:1033600000000000008000000000000080600000FD
:103370000000000080402010080000010204081036
:103380002000404040404040400004040404040445
:1033900004000008102040800000002010080402F3
:1033A0000100007048080808F000000000303601F5
:1033B0000000C030C828E810E000071827242314B4
:1033C0000B000000C038E0000000203C2302022770
:1033D000382008F8888888700000203F20202011BD
:1033E0000E00C030080808083800071820202010F8
:1033F000080008F808080810E000203F20202010EE
:103400000F0008F88888E8081000203F20202320BB
:10341000180008F88888E8081000203F2000030002
:103420000000C03008080838000007182020221EBD
:10343000020008F808000008F808203F21010121D7
:103440003F20000808F8080800000020203F202046
:10345000000000000808F8080800C08080807F0095
:10346000000008F888C028180800203F20012638EE
:10347000200008F8080000000000203F2020202045
:10348000300008F8F800F8F80800203F003F003F3F
:10349000200008F830C00008F808203F2000071876
:1034A0003F00E01008080810E0000F102020201056
:1034B0000F0008F808080808F000203F210101016A
:1034C0000000E01008080810E0000F18242438500D
:1034D0004F0008F8888888887000203F2000030C7F
:1034E0003020007088080808380000382021212288
:1034F0001C00180808F8080818000000203F2000E9
:10350000000008F808000008F808001F202020200C
:103510001F000878880000C83808000007380E012E
:103520000000F80800F80008F800033C0700073C1A
:103530000300081868808068180820302C03032CCA
:1035400030200838C800C83808000000203F20009C
:10355000000010080808C83808002038262120205C
:103560001800000000FE020202000000007F404040
:103570004000000C30C000000000000000010638D0
:10358000C00000020202FE000000004040407F0038
:10359000000000000402020204000000000000001D
:1035A000000000000000000000008080808080801B
:1035B0008080000202040000000000000000000003
:1035C0000000000080808080000000192422222258
:1035D0003F2008F8008080000000003F11202011EB
:1035E0000E000000008080800000000E11202020CE
:1035F0001100000000808088F800000E11202010CB
:103600003F200000808080800000001F22222222B4
:103610001300008080F0888888180020203F202038
:1036200000000000808080808000006B9494949360
:10363000600008F8008080800000203F210000200A
:103640003F2000809898000000000020203F2020AC
:103650000000000000809898000000C08080807FFB
:10366000000008F8000080808000203F24022D30F8
:103670002000000808F8000000000020203F202063
:1036800000008080808080808000203F20003F20DC
:10369000003F8080008080800000203F21000020CB
:1036A0003F200000808080800000001F202020201C
:1036B0001F00808000808000000080FFA12020117A
:1036C0000E000000008080808000000E112020A0ED
:1036D000FF80808080008080800020203F212000AB
:1036E0000100000080808080800000332424242496
:1036F0001900008080E0808000000000001F202072
:1037000000008080000000808000001F202020102A
:103710003F20808080000080808000010E300806FD
:10372000010080800080008080800F300C030C300E
:103730000F0000808000808080000020312E0E313C
:103740002000808080000080808080818E7018063C
:10375000010000808080808080000021302C2221A8
:10376000300000000000807C020200000000003FEA
:10377000404000000000FF00000000000000FF00CB
:1037800000000002027C800000000040403F00007A
:103790000000000601010202040400000000000015
:1037A0000000000002400000000000A00000000037
:1037B00005400000000000C8000000000C400000B0
:1037C0000000409C00000000194000000020BCBE2A
:1037D0000000000034400000BFC91B8E0000000440
:1037E000B5400000504BCFD06607E2CF010000008B
:1037F0006C4100003E8251AADFEEA73401000000B8
:10380000D9420000DCB5A0E23A301F97FFFFFFFF6E
:10381000B4450000FD25A0C8E9A3C14FFFFFFFFF8D
:10382000FF3F00000000008000000000FF3F00009C
:103830000000008000000000743800080000002034
:103840004000000028010008B438000840000020B3
:1038500028090000440100081C000000430000008B
:10386000F8FFFFFF0C0000000E0000000F0000003A
:103870002E0000000000000000000000000000001A
:1038800000A24A040000000000000000010203043E
:10389000060708090000000000000000000000000A
:1038A00000000102030401020304060708090204E0
:0438B0000608000006
:04000005080000ED02
:00000001FF
