:020000040800F2
:10000000A807002089010008DB170008E91500088F
:10001000D9170008F3020008411B00080000000087
:10002000000000000000000000000000DF170008D2
:10003000D904000800000000DD170008E1170008DF
:10004000A3010008A3010008A3010008A301000800
:10005000A3010008A3010008A3010008A3010008F0
:10006000A3010008A3010008A3010008A3010008E0
:10007000A3010008A3010008A3010008A3010008D0
:10008000A3010008A3010008A3010008A3010008C0
:10009000A3010008A3010008A3010008A3010008B0
:1000A000A3010008A3010008A3010008A3010008A0
:1000B000A3010008A301000845180008A3010008D7
:1000C000A3010008A3010008A3010008A301000880
:1000D000A3010008A3010008A3010008A301000870
:1000E000A3010008A3010008A301000800F002F822
:1000F00000F03AF80AA090E8000C82448344AAF188
:100100000107DA4501D100F02FF8AFF2090EBAE885
:100110000F0013F0010F18BFFB1A43F0010318473B
:1001200088200000A8200000103A24BF78C878C1B9
:10013000FAD8520724BF30C830C144BF04680C60ED
:10014000704700000023002400250026103A28BF35
:1001500078C1FBD8520728BF30C148BF0B60704739
:100160001FB51FBD10B510BD00F08AF81146FFF78E
:10017000F7FF01F0F7FC00F0A8F803B4FFF7F2FF77
:1001800003BC00F0AFF80000094880470948004769
:10019000FEE7FEE7FEE7FEE7FEE7FEE7FEE7FEE737
:1001A000FEE7FEE704480549054A064B7047000094
:1001B00041180008ED000008A8010020A807002051
:1001C000A8030020A803002010B5203AC0F00B803F
:1001D000B1E81850203AA0E81850B1E81850A0E84B
:1001E0001850BFF4F5AF5FEA027C24BFB1E81850A5
:1001F000A0E8185044BF18C918C0BDE810405FEA15
:10020000827C24BF51F8043B40F8043B08BF704790
:10021000D20728BF31F8023B48BF11F8012B28BF95
:1002200020F8023B48BF00F8012B70474FF0000256
:1002300000B5134694469646203922BFA0E80C50DC
:10024000A0E80C50B1F12001BFF4F7AF090728BFB7
:10025000A0E80C5048BF0CC05DF804EB890028BF33
:1002600040F8042B08BF704748BF20F8022B11F05C
:10027000804F18BF00F8012B7047704770477047D8
:10028000754600F02BF8AE4605006946534620F04F
:100290000700854618B020B5FFF784FFBDE8204071
:1002A0004FF000064FF000074FF000084FF0000B32
:1002B00021F00701AC46ACE8C009ACE8C009ACE8E5
:1002C000C009ACE8C0098D46704710B50446AFF3CD
:1002D00000802046BDE81040FFF74FBF0048704740
:1002E0004401002001491820ABBEFEE726000200B1
:1002F0007047FEE700F00CB810B50221034800F08B
:10030000DFF9012800D0002010BD000000080140E6
:1003100001220221014800F0D8B900000008014084
:1003200010B5074B0C4608B1012200E00022022163
:10033000184600F0CAF92046BDE8104001F070BC34
:100340000008014010B502210020FFF7E9FFFFF788
:10035000DFFF0A2001F064FCFFF7CEFF04463220E5
:1003600001F05EFC204610BD2DE9F04100252C4631
:100370005FF00107FFF7E6FF012803D107FA04F653
:100380002E43F5B2641C082CF4DB2846BDE8F0814E
:100390002DE9F0479AB08246582233496846FFF764
:1003A00013FF0024254600F063F8661E18B130469E
:1003B0001AB0BDE8F087CC2000F06EF8442000F0C1
:1003C0006BF82A4FFFF7BEFF012805D0012001F08E
:1003D00027FC7F1EF6D2EAE716AF00F049F80028A6
:1003E000E5D1CC2000F058F8BE2000F055F80026EA
:1003F000FFF7BAFFB855761C092EF9DB00269DF8E9
:10040000588001274FEA0D0907FA06F118EA010F93
:1004100009D009EBC6002946D0E90023204601F0A7
:100420001BFC04460D46761C082EEDDBB8469DF8F5
:100430005970002608FA06F0074209D009EBC600F9
:100440002946D0E91023204601F006FC04460D465B
:10045000761C032EEEDB380701D585F00045002021
:10046000CAE90045A4E70000502100083F420F0000
:1004700010B54FF4FA710020FFF752FFFFF748FF65
:10048000502001F0CDFBFFF737FF0446FA2001F0C2
:10049000C7FB204610BD00002DE9F04100240746AF
:1004A0005FF0010606FA04F53D4207D13C21002029
:1004B000FFF736FFFFF72CFF022006E002210020A5
:1004C000FFF72EFFFFF724FF3C2001F0A9FB641C7F
:1004D000082CE7DBBDE8F081704772B6FEE700004C
:1004E0002DE9F84FDFF8B8910024A9F1040B234659
:1004F0000F2709F1040AABF1040EC9E00125A5405C
:100500002A40AA427DD1674ED1F804C0ACEB060860
:10051000B44532D014DCBCF1030F3AD009DCBCF195
:10052000000F2AD0BCF1010F1CD0BCF1020F31D159
:100530001DE0BCF1110F17D0BCF1120F2AD119E048
:10054000B8F5881F19D006DCB8F5803F15D0B8F58E
:10055000801F1FD111E0B8F5001F0ED0B8F5041FA1
:1005600018D10AE0CB6815E0CB681B1D12E0CB6800
:1005700008330FE0CB680C330CE08B682BB1012BF8
:100580004FF0080303D0456104E0042302E0056155
:1005900000E00023FF2A01D8064601E000F104062E
:1005A0004FEA840501D9A5F12005D6F8008007FAA5
:1005B00005FC28EA0C0803FA05F548EA0508C6F820
:1005C00000804D68ED0062D5374DAE6946F00106FA
:1005D000AE61AD6924F0030605F001050095334DC9
:1005E00006EB050CDCF80850A607360F07FA06F8EC
:1005F00025EA0805DFF8B880404503D14FF0000830
:1006000017E044E0DFF8AC80404502D14FF001082C
:100610000FE0DFF8A480404502D14FF0020808E067
:10062000DFF89880404502D14FF0030801E04FF019
:10063000040808FA06F848EA0508CCF808804D686E
:10064000D9F80060ED024D4601D5164300E096430F
:100650002E604D68DAF80060AD02554601D51643AC
:1006600000E096432E604D68DBF80060AD035D4608
:1006700001D5164300E096432E604D68DEF8006019
:10068000ED03754601D5164300E096432E60641CC9
:100690000D682A46E5407FF431AFBDE8F88F0000D1
:1006A0000804014000001110001002400000014049
:1006B00000080140000C01400010014000140140FE
:1006C0008068084000D0012070470AB1016170477E
:1006D0000904FBE70148806870470000080000201B
:1006E00070B5040025D094F83D00002520B984F8A9
:1006F0003C50204600F0B8F8242084F83D002068E3
:10070000016821F0010101602068016841F40041A5
:1007100001602068016821F40041016000F04CFA9A
:100720004D4A6168914201D84C4900E04C498842E9
:1007300001D2012070BD4B492368B0FBF1F15E6826
:1007400026F03F060E435E606368934206D94FF47D
:10075000967359434FF47A73B1FBF3F12368491C44
:100760001E6A26F03F06314319626168914210D833
:100770004900401EB0FBF1F2521CC2F30B02042AE6
:1007800001D2042022E0B0FBF1F0401CC0F30B00CA
:100790001CE0A268F2B301EBC10303EB0116431E98
:1007A000B3FBF6F35B1C43F480431B0549D092B3C3
:1007B00001EBC10202EB0111401EB0FBF1F0401C45
:1007C000C0F30B0040F4804040F400402168CA6947
:1007D0004CF6FF739A431043C861D4E907100143F4
:1007E0002068026822F0C00211430160D4E90301CD
:1007F00001432068826848F2FF339A4311438160C5
:10080000D4E9050108432168CA6822F0FF021043B9
:10081000C86001E00EE016E02068016841F00101C7
:1008200001602564202084F83D00256384F83E5053
:10083000002070BD01EB4106431EB3FBF6F35B1CC9
:10084000B3E70120C2E701EB4101401EB0FBF1F02C
:10085000401CC0F30B00B7E7A086010080841E0097
:1008600000093D0040420F0010B586B00021009104
:1008700001910291039100680F4988421AD10F4CEF
:10088000A06940F00800A061A069694600F0080076
:100890000490C0200090122001900320039008488B
:1008A000FFF71EFEE06940F40010E061E06900F42B
:1008B0000010049006B010BD00540040001002402B
:1008C000000C014002488168027811448160704741
:1008D00008000020074810B5016841F010010160D0
:1008E000032000F0A1F80F2000F006F800F050F807
:1008F000002010BD0020024030B505461F4887B0DB
:10090000C16941F00401C161C06906A900F0040099
:10091000009001A800F030F90498B0B100F04CF953
:1009200040001749174AB0FBF1F11748491E026011
:10093000416040F2E7320021C0E90321816081611A
:1009400000F046FB040003D015E000F035F9E8E7BD
:100950000D4800F07DFB04000DD11E2000F036F89C
:10096000102D07D2002229461E2000F03DF807482E
:10097000056000E0012407B0204630BD00100240B1
:1009800040420F0000080040FC0000200C00002046
:100990000C4808B5816941F001018161816901F06C
:1009A00001010091C16941F08051C161C06900F04D
:1009B000805000900448416821F0E06141F00071EE
:1009C000416008BD0010024000000140002809DB22
:1009D00000F01F02012191404009800000F1E02059
:1009E000C0F8001170470000F0B40E4B1B680C46B5
:1009F000C3F30223C3F10705042D00D90425191DF3
:100A0000072901D2002300E0DB1E012606FA05F1CA
:100A1000491E214099409E40761E16403143F0BC4D
:100A200001F08FB80CED00E0064900F007020868FD
:100A30004FF6FF03184040EA0220034A10430860C3
:100A4000704700000CED00E00000FA052DE9F047CA
:100A50000F46050061D0434E306800F00700B842F1
:100A600009D2306820F0070038433060306800F069
:100A70000700B84251D128683B4C810712D5400786
:100A800003D5606840F4E06060602878000703D513
:100A9000606840F4605060606068A96820F0F00011
:100AA000084360602878C00728D06868012810D003
:100AB0002168022810D0890700292EDA616821F008
:100AC000030101436160FFF705FE804641F288396A
:100AD0000DE021688903EFE78901EDE7FFF7FAFDF3
:100AE000A0EB0801494502D90320BDE8F087606802
:100AF000696800F00C00B0EB810FEFD1306800F0B6
:100B00000700B8420BD9306820F007003843306046
:100B1000306800F00700B84201D00120E5E72878EE
:100B2000400705D56068E96820F4E060084360602C
:100B30002878000706D56068296920F4605040EAEB
:100B4000C100606000F058F86168084AC1F3031101
:100B5000515CC8400649086006480068FFF7CCFEB3
:100B60000020C2E7002002400010024032210008AD
:100B7000140000200C0000200F2202600C4A536871
:100B800003F003034360536803F0F003836053688A
:100B900003F4E063C36052684FF4E06303EAD202F7
:100BA00002610448006800F0070008607047000018
:100BB00000100240002002400448054900684968CE
:100BC000044AC1F30221515CC84070471400002060
:100BD00000100240422100080448054900684968A5
:100BE000044AC1F3C221515CC84070471400002080
:100BF00000100240422100080E4A51680E4801F0E0
:100C00000C03042B11D0082B0FD10C48C1F38343E4
:100C1000C903C05C0AD55168084AC1F34041921E1D
:100C2000515C054A5043B0FBF1F07047044948431A
:100C3000704700000010024000127A0022210008D4
:100C400000093D002DE9F84F040070D02078C04D18
:100C5000C00749D06868C0F38100012807D06868E0
:100C6000C0F38100022809D16868C00306D528684E
:100C7000800339D560680028E7D035E06068B0F5BA
:100C8000803F0BD010B1B0F5A02F11D0286820F410
:100C900080302860286820F4802002E0286840F432
:100CA00080302860606890B1FFF714FD06460AE0C6
:100CB000286840F480202860F0E700BFFFF70AFDB5
:100CC000801B642873D828688003F7D50CE0FFF7F1
:100CD00001FD064605E000BFFFF7FCFC801B642811
:100CE000F0D828688003F7D420789A4E80074FF018
:100CF00001094FF0000839D5686810F00C0F07D0D3
:100D00006868C0F38100022809D16868C00306D46E
:100D10002868800714D52069012808D110E02069CF
:100D2000B0B1C6F80090FFF7D5FC074605E00AE130
:100D3000FFF7D0FCC01B0228C4D828688007F7D56D
:100D40002868616920F0F80040EAC10028600DE0E1
:100D5000C6F80080FFF7BEFC074604E0FFF7BAFCC8
:100D6000C01B022823D828688007F7D42078000702
:100D70002CD57948A169D9B1C0F80090FFF7AAFC39
:100D8000074604E0FFF7A6FCC01B02280FD8686ADC
:100D90008007F7D571484FF4FA510068B0FBF1F0C5
:100DA000009000BF0098411E0091FAD20EE080E052
:100DB000C0F80080FFF78EFC074604E0FFF78AFCCE
:100DC000C01B022875D8686A8007F7D420784007CE
:100DD00060D5E8690027C00008D4E86940F0805079
:100DE000E861E869012700F0805000905C480168E4
:100DF000C90513D40168834641F480710160FFF78F
:100E000069FC824606E000BFFFF764FCA0EB0A0025
:100E100064284ED8DBF80000C005F5D5E06801284D
:100E20000AD008B1052813D0286A20F001002862F2
:100E3000286A20F0040002E0286A40F001002862DD
:100E4000E06841F2883B98B1FFF744FC82460BE032
:100E5000286A40F004002862EEE700BFFFF73AFC82
:100E6000A0EB0A0159455AD8286A8007F6D50CE04C
:100E7000FFF730FC824605E0FFF72CFCA0EB0A01EF
:100E800059454CD8286A8007F6D41FB1E86920F08C
:100E90008050E861E06988B36968C1F38101022983
:100EA00044D00228C6F8608004D0FFF713FC044643
:100EB00038E034E0FFF70EFC074604E0FFF70AFCD9
:100EC000C01B02282BD828688001F7D4206AB0F50F
:100ED000803F05D16868A16820F40030084368604D
:100EE000D4E908010843696821F474110843686073
:100EF000C6F86090FFF7EEFB044606E025E000BF71
:100F0000FFF7E8FB001B022809D828688001F7D505
:100F10001BE000BFFFF7DEFB001B022802D9032005
:100F2000BDE8F88F28688001F4D40EE00128F7D0DE
:100F30006868226A00F48031914204D1616A00F449
:100F40007010884201D00120EAE70020E8E70000A5
:100F5000001002400000424280044242140000207F
:100F6000007000407047704770B590F83C20012A2F
:100F700026D0012480F83C40022280F83D200368FE
:100F80005A689D6822F070060A6832435A600D4B19
:100F900002689A4208D0B2F1804F05D00A4B9A42BB
:100FA00002D00A4B9A4204D1496825F080031943C4
:100FB000916080F83D40002180F83C10084670BDEB
:100FC000022070BD002C01400004004000080040D9
:100FD00010B5040003D094F83D0010B107E00120E3
:100FE00010BD002084F83C00204600F01FF80220CD
:100FF00084F83D00211D206800F02AFC012084F8BF
:10100000460084F83E0084F83F0084F8400084F8ED
:10101000410084F8420084F8430084F8440084F8D6
:10102000450084F83D00002010BD000008B50068B0
:10103000B0F1804F08D10548C16941F00101C1619B
:10104000C06900F00100009008BD000000100240DF
:1010500090F83D10012901D001207047022180F84D
:101060003D100168CA6842F00102CA6000680B497D
:10107000884208D0B0F1804F05D00949884202D09B
:101080000849884204D1816801F00701062903D08C
:10109000016841F00101016000207047002C01400F
:1010A000000400400008004070B5044690F83C0081
:1010B0000025012817D0012684F83C60022084F81E
:1010C0003D002068826822F0770222F47F4282602D
:1010D0000868502838D00DDC20284FD005DC90B3AC
:1010E000102811D14AE0022070BD302846D0402897
:1010F0000AD13BE060282FD070280DD0B0F5805F7A
:1011000003D0B0F5005F12D0012584F83D600020C7
:1011100084F83C00284670BDCB68D1E901212068E5
:1011200000F0D9FB2068816841F0770109E0CB68C5
:10113000D1E90121206800F0CEFB2068816841F4EC
:1011400080418160E1E719E0CA684968206800F0E1
:1011500077FC5021206806E0CA684968206800F0E2
:1011600080FC6021206800F0C0FBCEE7CA684968B7
:10117000206800F065FC40212068F4E72268014601
:101180001046F0E7704770B50446006801694FF0FB
:101190000005C943890715D4C168C943890711D41B
:1011A000E91E0161012020772068806980072046C0
:1011B00002D0FFF7E7FF04E000F0BCF8204600F0A3
:1011C0004EF9257720680169C943490717D4C168DA
:1011D000C943490713D46FF004010161022020774D
:1011E0002068806910F4407F204602D0FFF7CAFFD4
:1011F00004E000F09FF8204600F031F925772068E0
:101200000169C943090716D4C168C943090712D443
:101210006FF008010161042020772068C069800711
:10122000204602D0FFF7AEFF04E000F083F820462E
:1012300000F015F9257720680169C943C90617D45C
:10124000C168C943C90613D46FF0100101610820B9
:1012500020772068C06910F4407F204602D0FFF755
:1012600091FF04E000F066F8204600F0F8F82577DA
:1012700020680169C943C90708D1C168C943C907C2
:1012800004D1891E0161204600F038F92068016907
:10129000C943090609D4C168C943090605D46FF0DA
:1012A000800101612046FFF75DFE20680169C943A6
:1012B000490609D4C168C943490605D46FF0400105
:1012C0000161204600F024F920680169C9438906BC
:1012D0000BD4C168C943890607D46FF020010161AE
:1012E0002046BDE87040FFF73EBE70BD00B585B03A
:1012F000002100910191029103910068B0F1804FAB
:1013000011D10A48816941F004018161806969460F
:1013100000F004000490012000900220019003904E
:101320000348FFF7DDF805B000BD000000100240E3
:1013300000080140704770B5044690F83C00002654
:101340000D4601280FD0012084F83C006AB1042A20
:101350001DD0082A2FD00C2A3FD00126002084F867
:101360003C00304670BD022070BD206800F0C6FA17
:101370002068816941F0080181612068816921F05C
:1013800004018161206881692A69114311E02068A4
:1013900000F0DCFA2068816941F400618161206815
:1013A000816921F480618161206881692A6941EA4B
:1013B00002218161D2E7206800F0F4FA2068C16957
:1013C00041F00801C1612068C16921F00401C161D7
:1013D0002068C1692A69114311E0206800F00EFB02
:1013E0002068C16941F40061C1612068C16921F4CC
:1013F0008061C1612068C1692A6941EA0221C16135
:10140000ACE710B5040003D094F83D0010B107E03C
:10141000012010BD002084F83C00204600F01EF89A
:10142000022084F83D00211D206800F011FA0120FF
:1014300084F8460084F83E0084F83F0084F84000B9
:1014400084F8410084F8420084F8430084F84400A2
:1014500084F8450084F83D00002010BD70477047B7
:1014600010B50446022249B104290ED0082913D030
:1014700094F84100012816D0012010BD94F83E00D8
:101480000128F9D184F83E200FE094F83F000128AC
:10149000F2D184F83F2008E094F840000128EBD115
:1014A00084F8402001E084F841200122206800F007
:1014B00005FA0F492068884203D1426C42F4004289
:1014C00042642068884208D0B0F1804F05D00949B5
:1014D000884202D00849884204D1816801F007019E
:1014E000062903D0016841F001010160002010BD10
:1014F000002C01400004004000080040006803493F
:10150000884201D1FFF7DEB97047000000080040B3
:10151000704770B5040004D094F84100002510B164
:1015200006E0012070BD84F84050204600F024F809
:10153000242084F841002068C16821F40051C16072
:10154000204600F0A1FA2068016921F49041016170
:101550002068416921F02A0141612068C16841F495
:101560000051C1606564202084F8410084F8420085
:101570006563002070BD000030B585B00024009484
:1015800001940294039400681449884224D11448B9
:10159000816941F480418161816901F48041049154
:1015A000816941F00401816180690E4D00F0040001
:1015B00004904FF4007000900220019003200390EB
:1015C00069462846FEF78CFF2815CDE900046946D8
:1015D00028460294FEF784FF05B030BD0038014074
:1015E0000010024000080140FEE700002DE9F04332
:1015F00085B000242F4800940194029403948169DB
:1016000041F010018161816901F01001049181694B
:1016100041F020018161816901F02001049181691B
:1016200041F004018161816901F004010491816943
:1016300041F00801816180691F4F00F008004FF4FC
:1016400000550490002229463846FFF73EF8DFF89F
:101650006C80002202214046FFF737F8DFF86090E7
:10166000002202214846FFF730F80126CDE9005656
:10167000022569463846CDE90245FEF731FFCDE93E
:101680000056CDE9026569464046FEF729FF09206C
:10169000CDE90004694648460294FEF721FFCDE9F2
:1016A000005669464846CDE90245FEF719FF05B0E8
:1016B000BDE8F08300100240001001400008014026
:1016C000000C01400D4810B50B4901600C49416008
:1016D00000214FF480428160C0E9031241618161C1
:1016E000C1610162FEF7FCFF002803D0BDE8104095
:1016F000FEF7F3BE10BD00000054004018000020AB
:10170000A086010010B58EB00024079408940994B7
:101710000A940B941C2168460C94FEF787FD1F4821
:101720004FF0804101604721C0E9011444F61F6178
:10173000C0E903148461FFF74BFC08B1FEF7CDFE4E
:101740004FF48050079007A91448FFF7ADFC08B18B
:10175000FEF7C3FE1148FFF754FE08B1FEF7BDFEC9
:101760000B940BA90D480C94FFF7FEFB08B1FEF794
:10177000B4FE602000904FF4FA70CDE9010400221D
:10178000694606480494FFF7D6FD08B1FEF7A5FEAA
:101790000248FFF7ABFD0EB010BD00006C0000204A
:1017A0000C4810B50A4901604FF4E1314160002155
:1017B00081600C22C160C0E904128161C161FFF740
:1017C000A8FE002803D0BDE81040FEF786BE10BD7D
:1017D00000380140B4000020FEE7FEE77047704784
:1017E000704730B58FB028216846FEF71FFD1421E1
:1017F0000AA8FEF71BFD01210804CDE90010002412
:10180000029402250491CDE907504FF4E0100990AD
:101810006846FFF717FA08B172B6FEE70F20CDE968
:101820000A054FF48060CDE90C4002210AA80E940D
:10183000FFF70CF9002801D072B6FEE70FB030BDFB
:10184000704700000148FFF79EBC0000FC0000202C
:10185000F0B50268164B174C174D4FF08047984271
:1018600005D0B84203D0A04201D0A84203D122F053
:1018700070064A683243984205D0B84203D0A0426D
:1018800001D0A84203D122F44074CA6822434C69B3
:1018900022F08002224302608A68C2620A68826281
:1018A000984201D10969016301214161F0BD000045
:1018B000002C0140000400400008004010B501F079
:1018C0001F030121046A99408C430462016A9A4013
:1018D0001143016210BD10B5846842EA032224F46A
:1018E0007F440A432243826010BD826822F0700266
:1018F0000A4342F0070181607047000030B5036A77
:10190000026A22F0010202624268846924F07305CF
:101910000C682C4323F002058B682B430A4DA84228
:101920000BD123F00805CB6822F440722B434D699C
:1019300023F0040315438A692A434260846149689D
:101940004163036230BD0000002C014030B5026AE3
:10195000036A23F010030362436884690D6824F46A
:10196000E64444EA05248D6822F0200242EA05128A
:101970000B4DA8420ED1CD6822F0800242EA05123A
:101980004D6923F4406343EA85038D6922F04002E8
:1019900043EA85034360846149688163026230BD24
:1019A000002C014030B5036A026A22F480720262A0
:1019B0004268C46923F4007324F073050C682C4357
:1019C0008D6843EA05230C4DA8420ED1CD6823F45F
:1019D000006343EA05234D6922F4405242EA0512AE
:1019E0008D6923F4806342EA05124260C46149684C
:1019F000C163036230BD0000002C014030B5046AB1
:101A0000026A22F4805202624268C3690D6823F4BC
:101A1000E64343EA05238D6824F4005444EA053480
:101A2000064DA84204D14D6922F4804242EA851253
:101A30004260C36149680164046230BD002C01400A
:101A400010B5036A046A24F001040462846924F076
:101A5000F00444EA021423F00A020A438461026299
:101A600010BD10B5036A046A24F01004046284698E
:101A700023F0A00324F4704444EA023243EA011143
:101A80008261016210BD000070B504460068016902
:101A9000E26821F44051114301612169A0680843C3
:101AA000616908432168CA6841F20C639A430243A2
:101AB000CA6020684169A26921F440711143416103
:101AC0001E492068884202D1FFF786F801E0FFF73F
:101AD00073F800EBC00101EB001260686421800024
:101AE000B2FBF0F3B3FBF1F36FF018067343B2FBF4
:101AF000F0F5B2FBF0F605EB8305322303EB051599
:101B0000B5FBF1F5B6FBF1F605F0F00505EB0615B2
:101B1000B2FBF0F6B2FBF0F0B0FBF1F06FF01802A0
:101B2000504306EB800003EB0010B0FBF1F021689E
:101B300000F00F002844886070BD000000380140AC
:101B4000FEE70907090E002804DB00F1E02080F819
:101B50000014704700F00F0000F1E02080F8141D21
:101B600070470000FEF7B6FEFFF73BFEFFF73EFDB5
:101B7000FFF7C8FDFFF714FEFFF7A4FDFEF7BAFB61
:101B800000212248FFF76CFC204F4FF4FA783968A7
:101B9000C1F83480FEF7AEFB1D4EDFF878A04FF49D
:101BA000005901213046FEF78BFD044608213046DE
:101BB000FEF786FD05461848FEF7EAFB70B91649A0
:101BC0000022164BD1E9000100F08AF901D201226E
:101BD00000E0002202213046FEF777FD64B1012CBF
:101BE00001D0002DDDD1012249465046FEF76DFDA2
:101BF000404639684863D4E7012DF2D100224946B6
:101C00005046FEF762FD40F2DC50F2E76C00002027
:101C1000000C0140001001400000002000003E4088
:101C200030B50C4A00211368DC6A4FF47A726043C5
:101C3000B0FBF2F55A6A586A9042FCD002D9A0EB88
:101C4000020202E0A4EB0202024411440246A9424D
:101C5000F1D330BDFC00002010B591EA030F48BF5E
:101C600083F0004300F17A81841A71EB030C05D2F2
:101C7000121943EB0C03001B61EB0C01DFF824E1AC
:101C80004FEA1154A4EB135C1EEA430F18BF9EEAFF
:101C9000445F73D023EA0E03DCF1200E21EA0451E5
:101CA00043F4801332D322FA0CFE10EB0E0023FA19
:101CB0000CFE41EB0E01CCF1200E03FA0EFE10EBF0
:101CC0000E0051F10001B1F5801FCCF1200E32D28F
:101CD00001EB045112FA0EF2BDE8104058BF7047F4
:101CE000401C38BF5FEA420218BF7047002814BF8B
:101CF00020F0010041F100014FEA410313F5001FFC
:101D000038BF7047A1F1C04100F0E4B8012A43EBAD
:101D10000302ACF1200CDCF11F0E32BF4FF0000EBD
:101D200023FA0CF310EB030041EB0451B4EB115F09
:101D3000D0D0A1EB045101F5801149085FEA3000D1
:101D400001EB04510ED350F1000038BF12FA0EFE21
:101D500008D1BDE81040C9E7401C38BF5FEA420225
:101D6000CAD1C3E7BDE810404FEA410313F5001F95
:101D700038BF7047A1F1C04100F0ACB89EEA445FA3
:101D800008D011EA5E0FBDE8104004BF01F0004129
:101D900000207047BDE8104070B500F04DF800BF5E
:101DA00064FBBE3E0000E0FF491058BFC1F1404156
:101DB0005B1058BFC3F140438B42EFF30080704784
:101DC00051EA030C17D41CF5801F58BFBCF5801FC7
:101DD00000F10680994218BF704708BF90427047D3
:101DE00007D711F5801F58BF13F5801F19D49942EA
:101DF0007047894270471CF5801F08D5BCF5801FCD
:101E0000F7D58B4218BF704708BF824270474FF426
:101E1000001C1CEB410F38BF1CEB430F01D28B425F
:101E2000704770B500F008F8922449004FF0005157
:101E30004FF08053FFF7B8BF0EF1020E2EF0030EE5
:101E40005EF8046B364205D4012A43EB030515F511
:101E5000001F12D8012841EB010C1CF5001F0CD803
:101E60000ED14FEAD17C15F5001F0CEB4C0C0CF198
:101E7000020C08BF4CEBD37C04E04FF0080C01E0EF
:101E80004FEAD37C0CEB4C0526FA05F606F0070664
:101E9000B6F1040C06D20EEB860CBDE870404CF097
:101EA000010C6047DFE80CF0090B02024FF0004123
:101EB0004FF00000A1F5002170BD19461046012821
:101EC00051EB010418BFD4F5001484BF002001F0C9
:101ED000004170BD0808A0F500114FEA31017047BC
:101EE00053EA010C17D41CF5801F58BFBCF5801FA6
:101EF00000F106808B4218BF704708BF82427047CE
:101F000007D713F5801F58BF11F5801F19D48B42D6
:101F100070479B4270471CF5801F08D5BCF5801F99
:101F2000F7D5994218BF704708BF904270474FF4E9
:101F3000001C1CEB430F38BF1CEB410F01D2994230
:101F400070470FB40CBC03BCFFF76BBF10B591EA30
:101F5000030F48BF83F000433FF586AE841A71EB50
:101F6000030C07D212198CF0004C43EB0C03001B3E
:101F700061EB0C01DFF8A4E14FEA1154A4EB135C10
:101F80001EEA430F18BF9EEA445F00F0B08023EAC8
:101F90006E03524221EA0451C3EB6E0338BF5B1E4D
:101FA000DCF1200E25D322FA0CFE10EB0E0043FAD2
:101FB0000CFE41EB0E01CCF1200E03FA0EFE10EBED
:101FC0000E0051F10001CCF1200E29D412FA0EF2CC
:101FD00001EB0451BDE8104058BF7047401C1CBFC6
:101FE000B2F1004F704700280CBF491C20F00100DF
:101FF000704712EB020E43EB030218BF4FF0010EC5
:102000004EEA4202ACF1200CDCF11E0E54D943FA28
:102010000CFE10EB0E0051F1FF31CCF11E0ED5D5A8
:102020000EF1010E12FA0EFE404141EB010101EBEF
:10203000445C5FEA5C5C10D910EBDE7001EB04518C
:1020400038BFBEF1004FBDE8104018BF70470028F0
:102050000CBF491C20F00100704730D24FEAD42C4D
:1020600011F5001124F400641BD0B1FA81F20B3A8F
:10207000A41AA41ED2F12003914030FA03F31943AD
:10208000904001EBCC71002C01EB0451BDE81040F5
:10209000A8BF704701F1C0414FF0000001F00041BE
:1020A0007047B0FA80F310FA03F100D110BDE41AC2
:1020B000173C4805C90AE4E701EB045110BD49107B
:1020C00001EB0451BDE810404FEA300002E04FF050
:1020D000000170474A0008BF0042F8D0B2F5001F67
:1020E00028BF704701F000414FF0000070479EEAA2
:1020F000445F07D011EA5E0FBDE8104004BF002125
:1021000000207047BDE8104070B5FFF795FE00BF96
:1021100040DFF63E83F00041104670470000E0FFCC
:10212000010202030405060708090A0B0C0D0E0F35
:102130001010000000000000000001020304060768
:102140000809000000000102030400000000000074
:10215000000000000000B03F000000000000C03F91
:10216000000000000000D03F000000000000E03F41
:10217000000000000000F03F0000000000000040F0
:10218000000000000000104000000000000020409F
:10219000000000000000304000000000000040404F
:1021A0000000000000005040C8210008000000208E
:1021B0001800000028010008E02100081800002095
:1021C000900700004401000800000000000000002B
:1021D0000100000010000000000000000024F400D6
:04000005080000ED02
:00000001FF
